{
  "contractName": "Building",
  "abi": [
    {
      "inputs": [],
      "payable": false,
      "stateMutability": "nonpayable",
      "type": "constructor"
    },
    {
      "anonymous": false,
      "inputs": [
        {
          "indexed": false,
          "internalType": "string",
          "name": "Description",
          "type": "string"
        }
      ],
      "name": "LogNewAlert",
      "type": "event"
    },
    {
      "constant": false,
      "inputs": [],
      "name": "Shipped",
      "outputs": [],
      "payable": false,
      "stateMutability": "nonpayable",
      "type": "function"
    },
    {
      "constant": false,
      "inputs": [],
      "name": "Delivered",
      "outputs": [],
      "payable": false,
      "stateMutability": "nonpayable",
      "type": "function"
    },
    {
      "constant": false,
      "inputs": [],
      "name": "BuildingInProgress",
      "outputs": [],
      "payable": false,
      "stateMutability": "nonpayable",
      "type": "function"
    },
    {
      "constant": false,
      "inputs": [],
      "name": "Built",
      "outputs": [],
      "payable": false,
      "stateMutability": "nonpayable",
      "type": "function"
    },
    {
      "constant": true,
      "inputs": [],
      "name": "Status",
      "outputs": [
        {
          "internalType": "string",
          "name": "",
          "type": "string"
        }
      ],
      "payable": false,
      "stateMutability": "view",
      "type": "function"
    }
  ],
  "bytecode": "0x608060405234801561001057600080fd5b5060008060006101000a81548160ff0219169083600481111561002f57fe5b0217905550610567806100436000396000f3fe608060405234801561001057600080fd5b50600436106100575760003560e01c806308aeb4ab1461005c57806345f09ce914610066578063779822f7146100e95780637e59301e146100f3578063b842826c146100fd575b600080fd5b610064610107565b005b61006e610194565b6040518080602001828103825283818151815260200191508051906020019080838360005b838110156100ae578082015181840152602081019050610093565b50505050905090810190601f1680156100db5780820380516001836020036101000a031916815260200191505b509250505060405180910390f35b6100f16101b8565b005b6100fb610245565b005b6101056102d2565b005b60036000806101000a81548160ff0219169083600481111561012557fe5b02179055507fca75c80642b93c980135b8355995abae3ab06033dc81f956b3824323b4903ef56040518080602001828103825260148152602001807f4275696c64696e6720496e2050726f677265737300000000000000000000000081525060200191505060405180910390a1565b606060008060009054906101000a900460ff1690506101b28161035f565b91505090565b60026000806101000a81548160ff021916908360048111156101d657fe5b02179055507fca75c80642b93c980135b8355995abae3ab06033dc81f956b3824323b4903ef56040518080602001828103825260208152602001807f546865206d6174657269616c7320686173206265656e2064656c69766572656481525060200191505060405180910390a1565b60016000806101000a81548160ff0219169083600481111561026357fe5b02179055507fca75c80642b93c980135b8355995abae3ab06033dc81f956b3824323b4903ef560405180806020018281038252601e8152602001807f546865206d6174657269616c7320686173206265656e2073686970706564000081525060200191505060405180910390a1565b60046000806101000a81548160ff021916908360048111156102f057fe5b02179055507fca75c80642b93c980135b8355995abae3ab06033dc81f956b3824323b4903ef56040518080602001828103825260138152602001807f54686973207061727420686173206275696c740000000000000000000000000081525060200191505060405180910390a1565b606081600481111561036d57fe5b6000600481111561037a57fe5b14156103bd576040518060400160405280600781526020017f50656e64696e6700000000000000000000000000000000000000000000000000815250905061052d565b8160048111156103c957fe5b600160048111156103d657fe5b1415610419576040518060400160405280600781526020017f5368697070656400000000000000000000000000000000000000000000000000815250905061052d565b81600481111561042557fe5b6002600481111561043257fe5b1415610475576040518060400160405280600981526020017f44656c6976657265640000000000000000000000000000000000000000000000815250905061052d565b81600481111561048157fe5b6003600481111561048e57fe5b14156104d1576040518060400160405280601281526020017f4275696c64696e67496e50726f67726573730000000000000000000000000000815250905061052d565b8160048111156104dd57fe5b6004808111156104e957fe5b141561052c576040518060400160405280600581526020017f4275696c74000000000000000000000000000000000000000000000000000000815250905061052d565b5b91905056fea265627a7a7231582001ef73012a555357aba6a0a29898666f18dc01365e4aaf842b6d8acde09b7c4b64736f6c63430005100032",
  "source": "// SPDX-License-Identifier: MIT\npragma solidity >=0.4.22 <0.8.0;\n\ncontract Building{\n\n    enum BuildingStatus {Pending, Shipped, Delivered, BuildingInProgress, Built}\n\n    BuildingStatus private status;\n    event LogNewAlert(string Description);\n\n    constructor() public{\n        status = BuildingStatus.Pending;\n    }\n\n    function Shipped() public{\n        status = BuildingStatus.Shipped;\n        emit LogNewAlert(\"The materials has been shipped\");\n    }\n\n    function Delivered() public{\n        status = BuildingStatus.Delivered;\n        emit LogNewAlert(\"The materials has been delivered\");\n    }\n\n    function BuildingInProgress() public{\n        status = BuildingStatus.BuildingInProgress;\n        emit LogNewAlert(\"Building In Progress\");\n    }\n\n    function Built() public{\n        status = BuildingStatus.Built;\n        emit LogNewAlert(\"This part has built\");\n    }\n\n    function getStatus(BuildingStatus _status) internal pure returns(string memory){\n        if(BuildingStatus.Pending == _status) return \"Pending\";\n        if(BuildingStatus.Shipped == _status) return \"Shipped\";\n        if(BuildingStatus.Delivered == _status) return \"Delivered\";\n        if(BuildingStatus.BuildingInProgress == _status) return \"BuildingInProgress\";\n        if(BuildingStatus.Built == _status) return \"Built\";\n    }\n\n    function Status() public view returns (string memory){\n        BuildingStatus _status = status;\n        return getStatus(_status);\n    } \n}",
  "sourcePath": "/Users/charmianho/BuildingDoc/contracts/Building.sol",
  "compiler": {
    "name": "solc",
    "version": "0.5.16+commit.9c3226ce.Emscripten.clang"
  },
  "schemaVersion": "3.2.3",
  "updatedAt": "2021-10-17T17:15:55.687Z",
  "networkType": "ethereum",
  "devdoc": {
    "methods": {}
  },
  "userdoc": {
    "methods": {}
  }
}